{
  "contractName": "VaccineContract",
  "abi": [
    {
      "inputs": [
        {
          "internalType": "address",
          "name": "",
          "type": "address"
        }
      ],
      "name": "checkUsers",
      "outputs": [
        {
          "internalType": "bool",
          "name": "",
          "type": "bool"
        }
      ],
      "stateMutability": "view",
      "type": "function",
      "constant": true
    },
    {
      "inputs": [
        {
          "internalType": "address",
          "name": "",
          "type": "address"
        }
      ],
      "name": "users",
      "outputs": [
        {
          "internalType": "string",
          "name": "name",
          "type": "string"
        },
        {
          "internalType": "string",
          "name": "age",
          "type": "string"
        },
        {
          "internalType": "string",
          "name": "dateOfBirth",
          "type": "string"
        },
        {
          "internalType": "uint256",
          "name": "numOfVaccine",
          "type": "uint256"
        }
      ],
      "stateMutability": "view",
      "type": "function",
      "constant": true
    },
    {
      "inputs": [
        {
          "internalType": "string",
          "name": "name",
          "type": "string"
        },
        {
          "internalType": "string",
          "name": "age",
          "type": "string"
        },
        {
          "internalType": "string",
          "name": "dateOfBirth",
          "type": "string"
        }
      ],
      "name": "createUser",
      "outputs": [],
      "stateMutability": "nonpayable",
      "type": "function"
    },
    {
      "inputs": [
        {
          "internalType": "string",
          "name": "nameVaccine",
          "type": "string"
        },
        {
          "internalType": "string",
          "name": "date",
          "type": "string"
        },
        {
          "internalType": "string",
          "name": "vaccinationFacility",
          "type": "string"
        }
      ],
      "name": "addVaccine",
      "outputs": [],
      "stateMutability": "nonpayable",
      "type": "function"
    },
    {
      "inputs": [],
      "name": "readVaccine",
      "outputs": [
        {
          "components": [
            {
              "internalType": "string",
              "name": "nameVaccine",
              "type": "string"
            },
            {
              "internalType": "string",
              "name": "date",
              "type": "string"
            },
            {
              "internalType": "string",
              "name": "vaccinationFacility",
              "type": "string"
            }
          ],
          "internalType": "struct VaccineContract.Vaccine[]",
          "name": "",
          "type": "tuple[]"
        }
      ],
      "stateMutability": "view",
      "type": "function",
      "constant": true
    },
    {
      "inputs": [
        {
          "internalType": "address",
          "name": "add",
          "type": "address"
        }
      ],
      "name": "getUser",
      "outputs": [
        {
          "internalType": "string",
          "name": "",
          "type": "string"
        },
        {
          "internalType": "string",
          "name": "",
          "type": "string"
        },
        {
          "internalType": "string",
          "name": "",
          "type": "string"
        }
      ],
      "stateMutability": "view",
      "type": "function",
      "constant": true
    }
  ],
  "bytecode": "0x608060405234801561001057600080fd5b506113de806100206000396000f3fe608060405234801561001057600080fd5b50600436106100625760003560e01c80634a0326d51461006757806359ae069b1461008557806366c8137c146100a15780636f77926b146100d15780638a5fe16814610103578063a87430ba1461011f575b600080fd5b61006f610152565b60405161007c9190610ec6565b60405180910390f35b61009f600480360381019061009a9190611031565b6104c7565b005b6100bb60048036038101906100b69190611136565b610613565b6040516100c8919061117e565b60405180910390f35b6100eb60048036038101906100e69190611136565b610633565b6040516100fa939291906111e3565b60405180910390f35b61011d60048036038101906101189190611031565b610938565b005b61013960048036038101906101349190611136565b610a81565b6040516101499493929190611248565b60405180910390f35b60606000339050600160008273ffffffffffffffffffffffffffffffffffffffff1673ffffffffffffffffffffffffffffffffffffffff16815260200190815260200160002060009054906101000a900460ff161561046b5760008060008373ffffffffffffffffffffffffffffffffffffffff1673ffffffffffffffffffffffffffffffffffffffff16815260200190815260200160002090506000816003015467ffffffffffffffff81111561020d5761020c610f06565b5b60405190808252806020026020018201604052801561024657816020015b610233610c49565b81526020019060019003908161022b5790505b50905060005b826003015481101561045f57826004016000828152602001908152602001600020604051806060016040529081600082018054610288906112d1565b80601f01602080910402602001604051908101604052809291908181526020018280546102b4906112d1565b80156103015780601f106102d657610100808354040283529160200191610301565b820191906000526020600020905b8154815290600101906020018083116102e457829003601f168201915b5050505050815260200160018201805461031a906112d1565b80601f0160208091040260200160405190810160405280929190818152602001828054610346906112d1565b80156103935780601f1061036857610100808354040283529160200191610393565b820191906000526020600020905b81548152906001019060200180831161037657829003601f168201915b505050505081526020016002820180546103ac906112d1565b80601f01602080910402602001604051908101604052809291908181526020018280546103d8906112d1565b80156104255780601f106103fa57610100808354040283529160200191610425565b820191906000526020600020905b81548152906001019060200180831161040857829003601f168201915b50505050508152505082828151811061044157610440611302565b5b6020026020010181905250808061045790611360565b91505061024c565b508093505050506104c4565b600167ffffffffffffffff81111561048657610485610f06565b5b6040519080825280602002602001820160405280156104bf57816020015b6104ac610c49565b8152602001906001900390816104a45790505b509150505b90565b600033905060008060008373ffffffffffffffffffffffffffffffffffffffff1673ffffffffffffffffffffffffffffffffffffffff168152602001908152602001600020905084816000019080519060200190610526929190610c6a565b508381600101908051906020019061053f929190610c6a565b5082816002019080519060200190610558929190610c6a565b50600160008373ffffffffffffffffffffffffffffffffffffffff1673ffffffffffffffffffffffffffffffffffffffff16815260200190815260200160002060009054906101000a900460ff1661060c576000816003018190555060018060008473ffffffffffffffffffffffffffffffffffffffff1673ffffffffffffffffffffffffffffffffffffffff16815260200190815260200160002060006101000a81548160ff0219169083151502179055505b5050505050565b60016020528060005260406000206000915054906101000a900460ff1681565b6060806060600160008573ffffffffffffffffffffffffffffffffffffffff1673ffffffffffffffffffffffffffffffffffffffff16815260200190815260200160002060009054906101000a900460ff16156108885760008060008673ffffffffffffffffffffffffffffffffffffffff1673ffffffffffffffffffffffffffffffffffffffff16815260200190815260200160002090508060000181600101826002018280546106e4906112d1565b80601f0160208091040260200160405190810160405280929190818152602001828054610710906112d1565b801561075d5780601f106107325761010080835404028352916020019161075d565b820191906000526020600020905b81548152906001019060200180831161074057829003601f168201915b50505050509250818054610770906112d1565b80601f016020809104026020016040519081016040528092919081815260200182805461079c906112d1565b80156107e95780601f106107be576101008083540402835291602001916107e9565b820191906000526020600020905b8154815290600101906020018083116107cc57829003601f168201915b505050505091508080546107fc906112d1565b80601f0160208091040260200160405190810160405280929190818152602001828054610828906112d1565b80156108755780601f1061084a57610100808354040283529160200191610875565b820191906000526020600020905b81548152906001019060200180831161085857829003601f168201915b5050505050905093509350935050610931565b6040518060400160405280600481526020017f6e756c6c000000000000000000000000000000000000000000000000000000008152506040518060400160405280600481526020017f6e756c6c000000000000000000000000000000000000000000000000000000008152506040518060400160405280600481526020017f6e756c6c000000000000000000000000000000000000000000000000000000008152509250925092505b9193909250565b6000339050600160008273ffffffffffffffffffffffffffffffffffffffff1673ffffffffffffffffffffffffffffffffffffffff16815260200190815260200160002060009054906101000a900460ff1615610a7b5760008060008373ffffffffffffffffffffffffffffffffffffffff1673ffffffffffffffffffffffffffffffffffffffff1681526020019081526020016000209050604051806060016040528086815260200185815260200184815250816004016000836003015481526020019081526020016000206000820151816000019080519060200190610a21929190610c6a565b506020820151816001019080519060200190610a3e929190610c6a565b506040820151816002019080519060200190610a5b929190610c6a565b50905050806003016000815480929190610a7490611360565b9190505550505b50505050565b6000602052806000526040600020600091509050806000018054610aa4906112d1565b80601f0160208091040260200160405190810160405280929190818152602001828054610ad0906112d1565b8015610b1d5780601f10610af257610100808354040283529160200191610b1d565b820191906000526020600020905b815481529060010190602001808311610b0057829003601f168201915b505050505090806001018054610b32906112d1565b80601f0160208091040260200160405190810160405280929190818152602001828054610b5e906112d1565b8015610bab5780601f10610b8057610100808354040283529160200191610bab565b820191906000526020600020905b815481529060010190602001808311610b8e57829003601f168201915b505050505090806002018054610bc0906112d1565b80601f0160208091040260200160405190810160405280929190818152602001828054610bec906112d1565b8015610c395780601f10610c0e57610100808354040283529160200191610c39565b820191906000526020600020905b815481529060010190602001808311610c1c57829003601f168201915b5050505050908060030154905084565b60405180606001604052806060815260200160608152602001606081525090565b828054610c76906112d1565b90600052602060002090601f016020900481019282610c985760008555610cdf565b82601f10610cb157805160ff1916838001178555610cdf565b82800160010185558215610cdf579182015b82811115610cde578251825591602001919060010190610cc3565b5b509050610cec9190610cf0565b5090565b5b80821115610d09576000816000905550600101610cf1565b5090565b600081519050919050565b600082825260208201905092915050565b6000819050602082019050919050565b600081519050919050565b600082825260208201905092915050565b60005b83811015610d73578082015181840152602081019050610d58565b83811115610d82576000848401525b50505050565b6000601f19601f8301169050919050565b6000610da482610d39565b610dae8185610d44565b9350610dbe818560208601610d55565b610dc781610d88565b840191505092915050565b60006060830160008301518482036000860152610def8282610d99565b91505060208301518482036020860152610e098282610d99565b91505060408301518482036040860152610e238282610d99565b9150508091505092915050565b6000610e3c8383610dd2565b905092915050565b6000602082019050919050565b6000610e5c82610d0d565b610e668185610d18565b935083602082028501610e7885610d29565b8060005b85811015610eb45784840389528151610e958582610e30565b9450610ea083610e44565b925060208a01995050600181019050610e7c565b50829750879550505050505092915050565b60006020820190508181036000830152610ee08184610e51565b905092915050565b6000604051905090565b600080fd5b600080fd5b600080fd5b600080fd5b7f4e487b7100000000000000000000000000000000000000000000000000000000600052604160045260246000fd5b610f3e82610d88565b810181811067ffffffffffffffff82111715610f5d57610f5c610f06565b5b80604052505050565b6000610f70610ee8565b9050610f7c8282610f35565b919050565b600067ffffffffffffffff821115610f9c57610f9b610f06565b5b610fa582610d88565b9050602081019050919050565b82818337600083830152505050565b6000610fd4610fcf84610f81565b610f66565b905082815260208101848484011115610ff057610fef610f01565b5b610ffb848285610fb2565b509392505050565b600082601f83011261101857611017610efc565b5b8135611028848260208601610fc1565b91505092915050565b60008060006060848603121561104a57611049610ef2565b5b600084013567ffffffffffffffff81111561106857611067610ef7565b5b61107486828701611003565b935050602084013567ffffffffffffffff81111561109557611094610ef7565b5b6110a186828701611003565b925050604084013567ffffffffffffffff8111156110c2576110c1610ef7565b5b6110ce86828701611003565b9150509250925092565b600073ffffffffffffffffffffffffffffffffffffffff82169050919050565b6000611103826110d8565b9050919050565b611113816110f8565b811461111e57600080fd5b50565b6000813590506111308161110a565b92915050565b60006020828403121561114c5761114b610ef2565b5b600061115a84828501611121565b91505092915050565b60008115159050919050565b61117881611163565b82525050565b6000602082019050611193600083018461116f565b92915050565b600082825260208201905092915050565b60006111b582610d39565b6111bf8185611199565b93506111cf818560208601610d55565b6111d881610d88565b840191505092915050565b600060608201905081810360008301526111fd81866111aa565b9050818103602083015261121181856111aa565b9050818103604083015261122581846111aa565b9050949350505050565b6000819050919050565b6112428161122f565b82525050565b6000608082019050818103600083015261126281876111aa565b9050818103602083015261127681866111aa565b9050818103604083015261128a81856111aa565b90506112996060830184611239565b95945050505050565b7f4e487b7100000000000000000000000000000000000000000000000000000000600052602260045260246000fd5b600060028204905060018216806112e957607f821691505b6020821081036112fc576112fb6112a2565b5b50919050565b7f4e487b7100000000000000000000000000000000000000000000000000000000600052603260045260246000fd5b7f4e487b7100000000000000000000000000000000000000000000000000000000600052601160045260246000fd5b600061136b8261122f565b91507fffffffffffffffffffffffffffffffffffffffffffffffffffffffffffffffff820361139d5761139c611331565b5b60018201905091905056fea26469706673582212201a2195908fc9719216539b1e297b9a4798421c1a411ad1a61c1c459128aeeef964736f6c634300080d0033",
  "immutableReferences": {},
  "source": "// SPDX-License-Identifier: MIT\r\npragma solidity >=0.4.22 <0.9.0;\r\n\r\ncontract VaccineContract {\r\n    struct Vaccine {\r\n        string nameVaccine;\r\n        string date;\r\n        string vaccinationFacility;\r\n    }\r\n\r\n    struct User {\r\n        string name;\r\n        string age;\r\n        string dateOfBirth;\r\n        uint256 numOfVaccine;\r\n        mapping(uint256 => Vaccine) vaccines;\r\n    }\r\n\r\n    mapping(address => User) public users;\r\n    mapping(address => bool) public checkUsers;\r\n\r\n    function createUser(\r\n        string memory name,\r\n        string memory age,\r\n        string memory dateOfBirth\r\n    ) external {\r\n        address userAddress = msg.sender;\r\n        User storage u = users[userAddress];\r\n        u.name = name;\r\n        u.age = age;\r\n        u.dateOfBirth = dateOfBirth;\r\n        if (!checkUsers[userAddress]){\r\n            u.numOfVaccine = 0;\r\n            checkUsers[userAddress] = true;\r\n        }\r\n    }\r\n\r\n    function addVaccine(\r\n        string memory nameVaccine,\r\n        string memory date,\r\n        string memory vaccinationFacility\r\n    ) external {\r\n        address userAddress = msg.sender;\r\n        if (checkUsers[userAddress]) {\r\n            User storage u = users[userAddress];\r\n            u.vaccines[u.numOfVaccine] = Vaccine(\r\n                nameVaccine,\r\n                date,\r\n                vaccinationFacility\r\n            );\r\n            u.numOfVaccine++;\r\n        }\r\n    }\r\n\r\n    function readVaccine() external view returns (Vaccine[] memory) {\r\n        address userAddress = msg.sender;\r\n        if (checkUsers[userAddress]) {\r\n            User storage u = users[userAddress];\r\n            Vaccine[] memory _list = new Vaccine[](u.numOfVaccine);\r\n            for (uint256 i = 0; i < u.numOfVaccine; i++) {\r\n                _list[i] = u.vaccines[i];\r\n            }\r\n            return _list;\r\n        }\r\n        return new Vaccine[](1);\r\n    }\r\n\r\n    function getUser(address add)\r\n        external\r\n        view\r\n        returns (\r\n            string memory,\r\n            string memory,\r\n            string memory\r\n        )\r\n    {\r\n        if (checkUsers[add]) {\r\n            User storage u = users[add];\r\n            return (u.name, u.age, u.dateOfBirth);\r\n        }\r\n        return (\"null\", \"null\", \"null\");\r\n    }\r\n}",
  "sourcePath": "D:\\Website\\vaccine-dapp\\contracts\\VaccineContract.sol",
  "compiler": {
    "name": "solc",
    "version": "0.8.13+commit.abaa5c0e.Emscripten.clang"
  },
  "schemaVersion": "3.4.5",
  "updatedAt": "2022-05-09T08:23:36.356Z",
  "networkType": "ethereum",
  "devdoc": {
    "kind": "dev",
    "methods": {},
    "version": 1
  },
  "userdoc": {
    "kind": "user",
    "methods": {},
    "version": 1
  }
}