{
  "contractName": "VaccineContract",
  "abi": [
    {
      "inputs": [
        {
          "internalType": "address",
          "name": "",
          "type": "address"
        }
      ],
      "name": "checkUsers",
      "outputs": [
        {
          "internalType": "bool",
          "name": "",
          "type": "bool"
        }
      ],
      "stateMutability": "view",
      "type": "function",
      "constant": true
    },
    {
      "inputs": [
        {
          "internalType": "address",
          "name": "",
          "type": "address"
        }
      ],
      "name": "users",
      "outputs": [
        {
          "internalType": "string",
          "name": "name",
          "type": "string"
        },
        {
          "internalType": "string",
          "name": "age",
          "type": "string"
        },
        {
          "internalType": "string",
          "name": "dateOfBirth",
          "type": "string"
        },
        {
          "internalType": "string",
          "name": "addr",
          "type": "string"
        },
        {
          "internalType": "uint256",
          "name": "numOfVaccine",
          "type": "uint256"
        }
      ],
      "stateMutability": "view",
      "type": "function",
      "constant": true
    },
    {
      "inputs": [
        {
          "internalType": "string",
          "name": "name",
          "type": "string"
        },
        {
          "internalType": "string",
          "name": "age",
          "type": "string"
        },
        {
          "internalType": "string",
          "name": "dateOfBirth",
          "type": "string"
        },
        {
          "internalType": "string",
          "name": "addr",
          "type": "string"
        }
      ],
      "name": "createUser",
      "outputs": [],
      "stateMutability": "nonpayable",
      "type": "function"
    },
    {
      "inputs": [
        {
          "internalType": "string",
          "name": "nameVaccine",
          "type": "string"
        },
        {
          "internalType": "string",
          "name": "date",
          "type": "string"
        },
        {
          "internalType": "string",
          "name": "vaccinationFacility",
          "type": "string"
        },
        {
          "internalType": "string",
          "name": "dose",
          "type": "string"
        }
      ],
      "name": "addVaccine",
      "outputs": [],
      "stateMutability": "nonpayable",
      "type": "function"
    },
    {
      "inputs": [],
      "name": "readVaccine",
      "outputs": [
        {
          "components": [
            {
              "internalType": "string",
              "name": "nameVaccine",
              "type": "string"
            },
            {
              "internalType": "string",
              "name": "date",
              "type": "string"
            },
            {
              "internalType": "string",
              "name": "vaccinationFacility",
              "type": "string"
            },
            {
              "internalType": "string",
              "name": "dose",
              "type": "string"
            }
          ],
          "internalType": "struct VaccineContract.Vaccine[]",
          "name": "",
          "type": "tuple[]"
        }
      ],
      "stateMutability": "view",
      "type": "function",
      "constant": true
    },
    {
      "inputs": [
        {
          "internalType": "address",
          "name": "add",
          "type": "address"
        }
      ],
      "name": "getUser",
      "outputs": [
        {
          "internalType": "string",
          "name": "",
          "type": "string"
        },
        {
          "internalType": "string",
          "name": "",
          "type": "string"
        },
        {
          "internalType": "string",
          "name": "",
          "type": "string"
        },
        {
          "internalType": "string",
          "name": "",
          "type": "string"
        }
      ],
      "stateMutability": "view",
      "type": "function",
      "constant": true
    }
  ],
  "bytecode": "0x608060405234801561001057600080fd5b50611684806100206000396000f3fe608060405234801561001057600080fd5b50600436106100625760003560e01c80634a0326d51461006757806366c8137c146100855780636f77926b146100b55780636f7fcddb146100e85780638d73ad3814610104578063a87430ba14610120575b600080fd5b61006f610154565b60405161007c9190611112565b60405180910390f35b61009f600480360381019061009a91906111a6565b61055b565b6040516100ac91906111ee565b60405180910390f35b6100cf60048036038101906100ca91906111a6565b61057b565b6040516100df9493929190611253565b60405180910390f35b61010260048036038101906100fd91906113e9565b61094b565b005b61011e600480360381019061011991906113e9565b610ab1565b005b61013a600480360381019061013591906111a6565b610c1e565b60405161014b9594939291906114d9565b60405180910390f35b60606000339050600160008273ffffffffffffffffffffffffffffffffffffffff1673ffffffffffffffffffffffffffffffffffffffff16815260200190815260200160002060009054906101000a900460ff16156104ff5760008060008373ffffffffffffffffffffffffffffffffffffffff1673ffffffffffffffffffffffffffffffffffffffff16815260200190815260200160002090506000816004015467ffffffffffffffff81111561020f5761020e6112be565b5b60405190808252806020026020018201604052801561024857816020015b610235610e74565b81526020019060019003908161022d5790505b50905060005b82600401548110156104f35782600501600082815260200190815260200160002060405180608001604052908160008201805461028a90611577565b80601f01602080910402602001604051908101604052809291908181526020018280546102b690611577565b80156103035780601f106102d857610100808354040283529160200191610303565b820191906000526020600020905b8154815290600101906020018083116102e657829003601f168201915b5050505050815260200160018201805461031c90611577565b80601f016020809104026020016040519081016040528092919081815260200182805461034890611577565b80156103955780601f1061036a57610100808354040283529160200191610395565b820191906000526020600020905b81548152906001019060200180831161037857829003601f168201915b505050505081526020016002820180546103ae90611577565b80601f01602080910402602001604051908101604052809291908181526020018280546103da90611577565b80156104275780601f106103fc57610100808354040283529160200191610427565b820191906000526020600020905b81548152906001019060200180831161040a57829003601f168201915b5050505050815260200160038201805461044090611577565b80601f016020809104026020016040519081016040528092919081815260200182805461046c90611577565b80156104b95780601f1061048e576101008083540402835291602001916104b9565b820191906000526020600020905b81548152906001019060200180831161049c57829003601f168201915b5050505050815250508282815181106104d5576104d46115a8565b5b602002602001018190525080806104eb90611606565b91505061024e565b50809350505050610558565b600167ffffffffffffffff81111561051a576105196112be565b5b60405190808252806020026020018201604052801561055357816020015b610540610e74565b8152602001906001900390816105385790505b509150505b90565b60016020528060005260406000206000915054906101000a900460ff1681565b606080606080600160008673ffffffffffffffffffffffffffffffffffffffff1673ffffffffffffffffffffffffffffffffffffffff16815260200190815260200160002060009054906101000a900460ff16156108635760008060008773ffffffffffffffffffffffffffffffffffffffff1673ffffffffffffffffffffffffffffffffffffffff16815260200190815260200160002090508060000181600101826002018360030183805461063190611577565b80601f016020809104026020016040519081016040528092919081815260200182805461065d90611577565b80156106aa5780601f1061067f576101008083540402835291602001916106aa565b820191906000526020600020905b81548152906001019060200180831161068d57829003601f168201915b505050505093508280546106bd90611577565b80601f01602080910402602001604051908101604052809291908181526020018280546106e990611577565b80156107365780601f1061070b57610100808354040283529160200191610736565b820191906000526020600020905b81548152906001019060200180831161071957829003601f168201915b5050505050925081805461074990611577565b80601f016020809104026020016040519081016040528092919081815260200182805461077590611577565b80156107c25780601f10610797576101008083540402835291602001916107c2565b820191906000526020600020905b8154815290600101906020018083116107a557829003601f168201915b505050505091508080546107d590611577565b80601f016020809104026020016040519081016040528092919081815260200182805461080190611577565b801561084e5780601f106108235761010080835404028352916020019161084e565b820191906000526020600020905b81548152906001019060200180831161083157829003601f168201915b50505050509050945094509450945050610944565b6040518060400160405280600481526020017f6e756c6c000000000000000000000000000000000000000000000000000000008152506040518060400160405280600481526020017f6e756c6c000000000000000000000000000000000000000000000000000000008152506040518060400160405280600481526020017f6e756c6c000000000000000000000000000000000000000000000000000000008152506040518060400160405280600481526020017f6e756c6c0000000000000000000000000000000000000000000000000000000081525093509350935093505b9193509193565b600033905060008060008373ffffffffffffffffffffffffffffffffffffffff1673ffffffffffffffffffffffffffffffffffffffff1681526020019081526020016000209050858160000190805190602001906109aa929190610e9c565b50848160010190805190602001906109c3929190610e9c565b50838160020190805190602001906109dc929190610e9c565b50828160030190805190602001906109f5929190610e9c565b50600160008373ffffffffffffffffffffffffffffffffffffffff1673ffffffffffffffffffffffffffffffffffffffff16815260200190815260200160002060009054906101000a900460ff16610aa9576000816004018190555060018060008473ffffffffffffffffffffffffffffffffffffffff1673ffffffffffffffffffffffffffffffffffffffff16815260200190815260200160002060006101000a81548160ff0219169083151502179055505b505050505050565b6000339050600160008273ffffffffffffffffffffffffffffffffffffffff1673ffffffffffffffffffffffffffffffffffffffff16815260200190815260200160002060009054906101000a900460ff1615610c175760008060008373ffffffffffffffffffffffffffffffffffffffff1673ffffffffffffffffffffffffffffffffffffffff1681526020019081526020016000209050604051806080016040528087815260200186815260200185815260200184815250816005016000836004015481526020019081526020016000206000820151816000019080519060200190610ba0929190610e9c565b506020820151816001019080519060200190610bbd929190610e9c565b506040820151816002019080519060200190610bda929190610e9c565b506060820151816003019080519060200190610bf7929190610e9c565b50905050806004016000815480929190610c1090611606565b9190505550505b5050505050565b6000602052806000526040600020600091509050806000018054610c4190611577565b80601f0160208091040260200160405190810160405280929190818152602001828054610c6d90611577565b8015610cba5780601f10610c8f57610100808354040283529160200191610cba565b820191906000526020600020905b815481529060010190602001808311610c9d57829003601f168201915b505050505090806001018054610ccf90611577565b80601f0160208091040260200160405190810160405280929190818152602001828054610cfb90611577565b8015610d485780601f10610d1d57610100808354040283529160200191610d48565b820191906000526020600020905b815481529060010190602001808311610d2b57829003601f168201915b505050505090806002018054610d5d90611577565b80601f0160208091040260200160405190810160405280929190818152602001828054610d8990611577565b8015610dd65780601f10610dab57610100808354040283529160200191610dd6565b820191906000526020600020905b815481529060010190602001808311610db957829003601f168201915b505050505090806003018054610deb90611577565b80601f0160208091040260200160405190810160405280929190818152602001828054610e1790611577565b8015610e645780601f10610e3957610100808354040283529160200191610e64565b820191906000526020600020905b815481529060010190602001808311610e4757829003601f168201915b5050505050908060040154905085565b6040518060800160405280606081526020016060815260200160608152602001606081525090565b828054610ea890611577565b90600052602060002090601f016020900481019282610eca5760008555610f11565b82601f10610ee357805160ff1916838001178555610f11565b82800160010185558215610f11579182015b82811115610f10578251825591602001919060010190610ef5565b5b509050610f1e9190610f22565b5090565b5b80821115610f3b576000816000905550600101610f23565b5090565b600081519050919050565b600082825260208201905092915050565b6000819050602082019050919050565b600081519050919050565b600082825260208201905092915050565b60005b83811015610fa5578082015181840152602081019050610f8a565b83811115610fb4576000848401525b50505050565b6000601f19601f8301169050919050565b6000610fd682610f6b565b610fe08185610f76565b9350610ff0818560208601610f87565b610ff981610fba565b840191505092915050565b600060808301600083015184820360008601526110218282610fcb565b9150506020830151848203602086015261103b8282610fcb565b915050604083015184820360408601526110558282610fcb565b9150506060830151848203606086015261106f8282610fcb565b9150508091505092915050565b60006110888383611004565b905092915050565b6000602082019050919050565b60006110a882610f3f565b6110b28185610f4a565b9350836020820285016110c485610f5b565b8060005b8581101561110057848403895281516110e1858261107c565b94506110ec83611090565b925060208a019950506001810190506110c8565b50829750879550505050505092915050565b6000602082019050818103600083015261112c818461109d565b905092915050565b6000604051905090565b600080fd5b600080fd5b600073ffffffffffffffffffffffffffffffffffffffff82169050919050565b600061117382611148565b9050919050565b61118381611168565b811461118e57600080fd5b50565b6000813590506111a08161117a565b92915050565b6000602082840312156111bc576111bb61113e565b5b60006111ca84828501611191565b91505092915050565b60008115159050919050565b6111e8816111d3565b82525050565b600060208201905061120360008301846111df565b92915050565b600082825260208201905092915050565b600061122582610f6b565b61122f8185611209565b935061123f818560208601610f87565b61124881610fba565b840191505092915050565b6000608082019050818103600083015261126d818761121a565b90508181036020830152611281818661121a565b90508181036040830152611295818561121a565b905081810360608301526112a9818461121a565b905095945050505050565b600080fd5b600080fd5b7f4e487b7100000000000000000000000000000000000000000000000000000000600052604160045260246000fd5b6112f682610fba565b810181811067ffffffffffffffff82111715611315576113146112be565b5b80604052505050565b6000611328611134565b905061133482826112ed565b919050565b600067ffffffffffffffff821115611354576113536112be565b5b61135d82610fba565b9050602081019050919050565b82818337600083830152505050565b600061138c61138784611339565b61131e565b9050828152602081018484840111156113a8576113a76112b9565b5b6113b384828561136a565b509392505050565b600082601f8301126113d0576113cf6112b4565b5b81356113e0848260208601611379565b91505092915050565b600080600080608085870312156114035761140261113e565b5b600085013567ffffffffffffffff81111561142157611420611143565b5b61142d878288016113bb565b945050602085013567ffffffffffffffff81111561144e5761144d611143565b5b61145a878288016113bb565b935050604085013567ffffffffffffffff81111561147b5761147a611143565b5b611487878288016113bb565b925050606085013567ffffffffffffffff8111156114a8576114a7611143565b5b6114b4878288016113bb565b91505092959194509250565b6000819050919050565b6114d3816114c0565b82525050565b600060a08201905081810360008301526114f3818861121a565b90508181036020830152611507818761121a565b9050818103604083015261151b818661121a565b9050818103606083015261152f818561121a565b905061153e60808301846114ca565b9695505050505050565b7f4e487b7100000000000000000000000000000000000000000000000000000000600052602260045260246000fd5b6000600282049050600182168061158f57607f821691505b6020821081036115a2576115a1611548565b5b50919050565b7f4e487b7100000000000000000000000000000000000000000000000000000000600052603260045260246000fd5b7f4e487b7100000000000000000000000000000000000000000000000000000000600052601160045260246000fd5b6000611611826114c0565b91507fffffffffffffffffffffffffffffffffffffffffffffffffffffffffffffffff8203611643576116426115d7565b5b60018201905091905056fea2646970667358221220ff83ddfd094fbdbb2cab00ce0652a8945224c03ae5c5aa08954790e820188efc64736f6c634300080d0033",
  "immutableReferences": {},
  "source": "// SPDX-License-Identifier: MIT\r\npragma solidity >=0.4.22 <0.9.0;\r\n\r\ncontract VaccineContract {\r\n    struct Vaccine {\r\n        string nameVaccine;\r\n        string date;\r\n        string vaccinationFacility;\r\n        string dose;\r\n    }\r\n\r\n    struct User {\r\n        string name;\r\n        string age;\r\n        string dateOfBirth;\r\n        string addr;\r\n        uint256 numOfVaccine;\r\n        mapping(uint256 => Vaccine) vaccines;\r\n    }\r\n\r\n    mapping(address => User) public users;\r\n    mapping(address => bool) public checkUsers;\r\n\r\n    function createUser(\r\n        string memory name,\r\n        string memory age,\r\n        string memory dateOfBirth,\r\n        string memory addr\r\n    ) external {\r\n        address userAddress = msg.sender;\r\n        User storage u = users[userAddress];\r\n        u.name = name;\r\n        u.age = age;\r\n        u.dateOfBirth = dateOfBirth;\r\n        u.addr = addr;\r\n        if (!checkUsers[userAddress]) {\r\n            u.numOfVaccine = 0;\r\n            checkUsers[userAddress] = true;\r\n        }\r\n    }\r\n\r\n    function addVaccine(\r\n        string memory nameVaccine,\r\n        string memory date,\r\n        string memory vaccinationFacility,\r\n        string memory dose\r\n    ) external {\r\n        address userAddress = msg.sender;\r\n        if (checkUsers[userAddress]) {\r\n            User storage u = users[userAddress];\r\n            u.vaccines[u.numOfVaccine] = Vaccine(\r\n                nameVaccine,\r\n                date,\r\n                vaccinationFacility,\r\n                dose\r\n            );\r\n            u.numOfVaccine++;\r\n        }\r\n    }\r\n\r\n    function readVaccine() external view returns (Vaccine[] memory) {\r\n        address userAddress = msg.sender;\r\n        if (checkUsers[userAddress]) {\r\n            User storage u = users[userAddress];\r\n            Vaccine[] memory _list = new Vaccine[](u.numOfVaccine);\r\n            for (uint256 i = 0; i < u.numOfVaccine; i++) {\r\n                _list[i] = u.vaccines[i];\r\n            }\r\n            return _list;\r\n        }\r\n        return new Vaccine[](1);\r\n    }\r\n\r\n    function getUser(address add)\r\n        external\r\n        view\r\n        returns (\r\n            string memory,\r\n            string memory,\r\n            string memory,\r\n            string memory\r\n        )\r\n    {\r\n        if (checkUsers[add]) {\r\n            User storage u = users[add];\r\n            return (u.name, u.age, u.dateOfBirth, u.addr);\r\n        }\r\n        return (\"null\", \"null\", \"null\", \"null\");\r\n    }\r\n}\r\n",
  "sourcePath": "D:\\Blockchain\\vaccine\\contracts\\VaccineContract.sol",
  "compiler": {
    "name": "solc",
    "version": "0.8.13+commit.abaa5c0e.Emscripten.clang"
  },
  "schemaVersion": "3.4.7",
  "updatedAt": "2022-05-10T08:01:30.654Z",
  "networkType": "ethereum",
  "devdoc": {
    "kind": "dev",
    "methods": {},
    "version": 1
  },
  "userdoc": {
    "kind": "user",
    "methods": {},
    "version": 1
  }
}